S01400006174786D6567615F71656E632E7372656323
S1130000FDC0000016C1000014C1000012C10000B0
S113001010C100000EC100000CC100000AC10000A4
S113002008C1000006C1000004C1000002C10000B4
S113003000C10000FEC00000FDC0000024C100009B
S11300404BC1000072C1000099C10000C0C1000092
S1130050E7C100000EC2000035C200005CC200000F
S1130060E8C00000E6C00000E4C00000E2C00000F8
S1130070E0C00000DEC00000DCC00000DAC0000008
S1130080D8C00000D6C00000D4C00000D2C0000018
S1130090D0C00000CEC00000CCC00000CAC0000028
S11300A0C8C00000C6C00000C4C00000C2C0000038
S11300B0C0C00000BEC00000BCC00000EFC3000010
S11300C016C400003DC4000064C400008BC40000DA
S11300D0B2C40000AEC00000ACC00000AAC0000062
S11300E0A8C00000A6C00000B1C50000A2C0000066
S11300F0A0C000009EC000009CC000009AC0000088
S113010098C0000096C0000094C0000092C0000097
S113011090C000008EC000008CC000008AC00000A7
S113012088C0000086C0000084C0000082C00000B7
S113013080C0000019C2000040C2000067C2000075
S11301408EC20000B5C20000DCC2000003C3000080
S11301502AC3000051C3000078C300006AC0000035
S113016068C0000066C0000064C0000062C00000F7
S113017060C000005EC000005CC000005AC0000007
S113018058C0000056C0000054C0000052C0000017
S113019050C000004EC000004CC000004AC0000027
S11301A048C0000046C0000044C0000042C0000037
S11301B040C000003EC000003CC000003AC0000047
S11301C038C0000036C0000034C0000032C0000057
S11301D030C000002EC000002CC000002AC0000067
S11301E028C0000026C0000024C0000022C0000077
S11301F020C000001EC000001CC0000011241FBE4F
S1130200CFEFCDBFDFE2DEBF10E2A0E0B0E2E8ED69
S1130210FCE002C005900D92A633B107D9F720E2A5
S1130220A6E3B0E201C01D92AA36B207E1F7BBD43F
S113023051C5E6CE1F920F920FB60F9211242F9341
S11302403F934F935F936F937F938F939F93AF935A
S1130250BF93EF93FF93E0916820F091692030976A
S113026009F00995FF91EF91BF91AF919F918F9103
S11302707F916F915F914F913F912F910F900FBE9E
S11302800F901F9018951F920F920FB60F92112482
S11302902F933F934F935F936F937F938F939F938A
S11302A0AF93BF93EF93FF93E0916620F0916720A3
S11302B0309709F00995FF91EF91BF91AF919F910C
S11302C08F917F916F915F914F913F912F910F90FB
S11302D00FBE0F901F9018951F920F920FB60F929A
S11302E011242F933F934F935F936F937F938F9337
S11302F09F93AF93BF93EF93FF93E0916420F091AA
S11303006520309709F00995FF91EF91BF91AF9166
S11303109F918F917F916F915F914F913F912F9119
S11303200F900FBE0F901F9018951F920F920FB64B
S11303300F9211242F933F934F935F936F937F9367
S11303408F939F93AF93BF93EF93FF93E0916220BA
S1130350F0916320309709F00995FF91EF91BF91D7
S1130360AF919F918F917F916F915F914F913F9149
S11303702F910F900FBE0F901F9018951F920F9200
S11303800FB60F9211242F933F934F935F936F9364
S11303907F938F939F93AF93BF93EF93FF93E091DA
S11303A06020F0916120309709F00995FF91EF9159
S11303B0BF91AF919F918F917F916F915F914F9179
S11303C03F912F910F900FBE0F901F9018951F9281
S11303D00F920FB60F9211242F933F934F935F9375
S11303E06F937F938F939F93AF93BF93EF93FF93F9
S11303F0E0915E20F0915F20309709F00995FF911C
S1130400EF91BF91AF919F918F917F916F915F9188
S11304104F913F912F910F900FBE0F901F90189501
S11304201F920F920FB60F9211242F933F934F9365
S11304305F936F937F938F939F93AF93BF93EF9348
S1130440FF93E0915C20F0915D20309709F00995CD
S1130450FF91EF91BF91AF919F918F917F916F9198
S11304605F914F913F912F910F900FBE0F901F906E
S113047018951F920F920FB60F9211242F933F934A
S11304804F935F936F937F938F939F93AF93BF9398
S1130490EF93FF93E0915A20F0915B20309709F09D
S11304A00995FF91EF91BF91AF919F918F917F91AA
S11304B06F915F914F913F912F910F900FBE0F90CD
S11304C01F9018951F920F920FB60F9211242F931D
S11304D03F934F935F936F937F938F939F93AF93C8
S11304E0BF93EF93FF93E0915820F09159203097F8
S11304F009F00995FF91EF91BF91AF919F918F9171
S11305007F916F915F914F913F912F910F900FBE0B
S11305100F901F9018951F920F920FB60F921124EF
S11305202F933F934F935F936F937F938F939F93F7
S1130530AF93BF93EF93FF93E0915620F091572030
S1130540309709F00995FF91EF91BF91AF919F9179
S11305508F917F916F915F914F913F912F910F9068
S11305600FBE0F901F9018951F920F920FB60F9207
S113057011242F933F934F935F936F937F938F93A4
S11305809F93AF93BF93EF93FF93E0915420F09127
S11305905520309709F00995FF91EF91BF91AF91E4
S11305A09F918F917F916F915F914F913F912F9187
S11305B00F900FBE0F901F9018951F920F920FB6B9
S11305C00F9211242F933F934F935F936F937F93D5
S11305D08F939F93AF93BF93EF93FF93E091522038
S11305E0F0915320309709F00995FF91EF91BF9155
S11305F0AF919F918F917F916F915F914F913F91B7
S11306002F910F900FBE0F901F9018951F920F926D
S11306100FB60F9211242F933F934F935F936F93D1
S11306207F938F939F93AF93BF93EF93FF93E09147
S11306305020F0915120309709F00995FF91EF91E6
S1130640BF91AF919F918F917F916F915F914F91E6
S11306503F912F910F900FBE0F901F9018951F92EE
S11306600F920FB60F9211242F933F934F935F93E2
S11306706F937F938F939F93AF93BF93EF93FF9366
S1130680E0914E20F0914F20309709F00995FF91A9
S1130690EF91BF91AF919F918F917F916F915F91F6
S11306A04F913F912F910F900FBE0F901F9018956F
S11306B01F920F920FB60F9211242F933F934F93D3
S11306C05F936F937F938F939F93AF93BF93EF93B6
S11306D0FF93E0914C20F0914D20309709F009955B
S11306E0FF91EF91BF91AF919F918F917F916F9106
S11306F05F914F913F912F910F900FBE0F901F90DC
S113070018951F920F920FB60F9211242F933F93B7
S11307104F935F936F937F938F939F93AF93BF9305
S1130720EF93FF93E0914A20F0914B20309709F02A
S11307300995FF91EF91BF91AF919F918F917F9117
S11307406F915F914F913F912F910F900FBE0F903A
S11307501F9018951F920F920FB60F9211242F938A
S11307603F934F935F936F937F938F939F93AF9335
S1130770BF93EF93FF93E0914820F0914920309785
S113078009F00995FF91EF91BF91AF919F918F91DE
S11307907F916F915F914F913F912F910F900FBE79
S11307A00F901F9018951F920F920FB60F9211245D
S11307B02F933F934F935F936F937F938F939F9365
S11307C0AF93BF93EF93FF93E0914620F0914720BE
S11307D0309709F00995FF91EF91BF91AF919F91E7
S11307E08F917F916F915F914F913F912F910F90D6
S11307F00FBE0F901F9018951F920F920FB60F9275
S113080011242F933F934F935F936F937F938F9311
S11308109F93AF93BF93EF93FF93E0914420F091A4
S11308204520309709F00995FF91EF91BF91AF9161
S11308309F918F917F916F915F914F913F912F91F4
S11308400F900FBE0F901F9018951F920F920FB626
S11308500F9211242F933F934F935F936F937F9342
S11308608F939F93AF93BF93EF93FF93E0914220B5
S1130870F0914320309709F00995FF91EF91BF91D2
S1130880AF919F918F917F916F915F914F913F9124
S11308902F910F900FBE0F901F9018951F920F92DB
S11308A00FB60F9211242F933F934F935F936F933F
S11308B07F938F939F93AF93BF93EF93FF93E091B5
S11308C04020F0914120309709F00995FF91EF9174
S11308D0BF91AF919F918F917F916F915F914F9154
S11308E03F912F910F900FBE0F901F9018951F925C
S11308F00F920FB60F9211242F933F934F935F9350
S11309006F937F938F939F93AF93BF93EF93FF93D3
S1130910E0913E20F0913F20309709F00995FF9136
S1130920EF91BF91AF919F918F917F916F915F9163
S11309304F913F912F910F900FBE0F901F901895DC
S11309401F920F920FB60F9211242F933F934F9340
S11309505F936F937F938F939F93AF93BF93EF9323
S1130960FF93E0913C20F0913D20309709F00995E8
S1130970FF91EF91BF91AF919F918F917F916F9173
S11309805F914F913F912F910F900FBE0F901F9049
S113099018951F920F920FB60F9211242F933F9325
S11309A04F935F936F937F938F939F93AF93BF9373
S11309B0EF93FF93E0913A20F0913B20309709F0B8
S11309C00995FF91EF91BF91AF919F918F917F9185
S11309D06F915F914F913F912F910F900FBE0F90A8
S11309E01F9018951F920F920FB60F9211242F93F8
S11309F03F934F935F936F937F938F939F93AF93A3
S1130A00BF93EF93FF93E0913820F0913920309712
S1130A1009F00995FF91EF91BF91AF919F918F914B
S1130A207F916F915F914F913F912F910F900FBEE6
S1130A300F901F9018951F920F920FB60F921124CA
S1130A402F933F934F935F936F937F938F939F93D2
S1130A50AF93BF93EF93FF93E0913620F09137204B
S1130A60309709F00995FF91EF91BF91AF919F9154
S1130A708F917F916F915F914F913F912F910F9043
S1130A800FBE0F901F90189580E090E1809360094D
S1130A909093610980936008909361088093200982
S1130AA0909321090895E0E4F6E08CE0828380E4E9
S1130AB0818B8BE1828B838BE0E8F1E082E680839B
S1130AC089E08087E0E4F8E088E6838380E090E2D0
S1130AD086A397A381E0808380E090E180A391A323
S1130AE00895E0E6F6E08CE0828380E4818B8BE17C
S1130AF0828B838BE0E8F1E08AE6828399E0928737
S1130B00E0E0F9E0838380E090E286A397A381E0AC
S1130B10808380E090E180A391A30895E0E0F6E073
S1130B208CE0828380E4818B8BE1828B838BE0E891
S1130B30F1E082E5848389E08487E0E4F9E08CE6EF
S1130B40838380E090E286A397A381E0808380E0A2
S1130B5090E180A391A30895E0E0F6E080818068AD
S1130B608083848114820895E0EAFAE080EB86832E
S1130B7017828781806B878380E18383818180688A
S1130B80818388E1848383E085838581877C858371
S1130B9088E080938006818185FFFDCF81E080938A
S1130BA0A200789408957894D7DFDEDF7CDF99DFA4
S1130BB0B5DFFFCFFC012081222359F0DC0111961F
S1130BC0E0EAFAE0918195FFFDCF20832D91211178
S1130BD0F9CF0895E0EAFAE0918195FFFDCF809383
S1130BE0A00A0895CF93C82F8A3A21F08B3B11F0C5
S1130BF08D3731F48DE7EEDF80E28C27EBDF01C027
S1130C00E9DFCF910895EF92FF920F931F93CF9353
S1130C10DF93F82EE92E162F072FC42FD52F8AEA3B
S1130C20D9DF8E2DDFDF8F2DDDDF802FDBDF812FFE
S1130C30D9DF8D2FD7DF8C2FD5DF8BEBCBDFDF9187
S1130C40CF911F910F91FF90EF9008951F920F92F3
S1130C500FB60F9211242F933F934F935F936F938B
S1130C607F938F939F93AF93BF93EF93FF93E0E0B2
S1130C70F6E08481806884838091A00A8A3A71F4C2
S1130C804091600950916109609120097091210996
S1130C908091600890916108B6DF07C08B3B11F426
S1130CA0F3DE03C080E090E285DFE0E0F6E08481DB
S1130CB01482FF91EF91BF91AF919F918F917F919A
S1130CC06F915F914F913F912F910F900FBE0F90B5
S10B0CD01F901895F894FFCF62
S1130CD853656E64203078424220666F7220636FD9
S1130CE8756E7465722072657365742C2030784152
S1130CF84120666F7220706F736974696F6E20711A
S1090D08756572790A0012
S9030000FC
