:10000000FDC0000016C1000014C1000012C10000B4
:1000100010C100000EC100000CC100000AC10000A8
:1000200008C1000006C1000004C1000002C10000B8
:1000300000C10000FEC000000EC1000035C100007C
:100040005CC1000083C10000AAC10000D1C1000052
:10005000F8C100001FC2000046C200006DC20000CF
:10006000E8C00000E6C00000E4C00000E2C00000FC
:10007000E0C00000DEC00000DCC00000DAC000000C
:10008000D8C00000D6C00000D4C00000D2C000001C
:10009000D0C00000CEC00000CCC00000CAC000002C
:1000A000C8C00000C6C00000C4C00000C2C000003C
:1000B000C0C00000BEC00000BCC0000000C4000002
:1000C00027C400004EC4000075C400009CC400009A
:1000D000C3C40000AEC00000ACC00000AAC0000055
:1000E000A8C00000A6C0000025C50000A2C00000F6
:1000F000A0C000009EC000009CC000009AC000008C
:1001000098C0000096C0000094C0000092C000009B
:1001100090C000008EC000008CC000008AC00000AB
:1001200088C0000086C0000084C0000082C00000BB
:1001300080C000002AC2000051C2000078C2000046
:100140009FC20000C6C20000EDC2000014C3000040
:100150003BC3000062C3000089C300006AC0000006
:1001600068C0000066C0000064C0000062C00000FB
:1001700060C000005EC000005CC000005AC000000B
:1001800058C0000056C0000054C0000052C000001B
:1001900050C000004EC000004CC000004AC000002B
:1001A00048C0000046C0000044C0000042C000003B
:1001B00040C000003EC000003CC000003AC000004B
:1001C00038C0000036C0000034C0000032C000005B
:1001D00030C000002EC000002CC000002AC000006B
:1001E00028C0000026C0000024C0000022C000007B
:1001F00020C000001EC000001CC0000011241FBE53
:10020000CFEFCDBFDFE2DEBF10E2A0E0B0E2E8EA70
:10021000F1E102C005900D92A034B107D9F720E2B8
:10022000A0E4B0E201C01D92A437B207E1F76FD499
:10023000B9C7E6CEDC011B96ED91FC911C9780A11D
:1002400091A10895DC011B96ED91FC911C9781858D
:100250008095817008951F920F920FB60F9211240E
:100260002F933F934F935F936F937F938F939F93BE
:10027000AF93BF93EF93FF93E0917220F0917320BF
:10028000309709F00995FF91EF91BF91AF919F9140
:100290008F917F916F915F914F913F912F910F902F
:1002A0000FBE0F901F9018951F920F920FB60F92CE
:1002B00011242F933F934F935F936F937F938F936B
:1002C0009F93AF93BF93EF93FF93E0917020F091D2
:1002D0007120309709F00995FF91EF91BF91AF918F
:1002E0009F918F917F916F915F914F913F912F914E
:1002F0000F900FBE0F901F9018951F920F920FB680
:100300000F9211242F933F934F935F936F937F939B
:100310008F939F93AF93BF93EF93FF93E0916E20E2
:10032000F0916F20309709F00995FF91EF91BF91FF
:10033000AF919F918F917F916F915F914F913F917D
:100340002F910F900FBE0F901F9018951F920F9234
:100350000FB60F9211242F933F934F935F936F9398
:100360007F938F939F93AF93BF93EF93FF93E0910E
:100370006C20F0916D20309709F00995FF91EF9175
:10038000BF91AF919F918F917F916F915F914F91AD
:100390003F912F910F900FBE0F901F9018951F92B5
:1003A0000F920FB60F9211242F933F934F935F93A9
:1003B0006F937F938F939F93AF93BF93EF93FF932D
:1003C000E0916A20F0916B20309709F00995FF9138
:1003D000EF91BF91AF919F918F917F916F915F91BD
:1003E0004F913F912F910F900FBE0F901F90189536
:1003F0001F920F920FB60F9211242F933F934F939A
:100400005F936F937F938F939F93AF93BF93EF937C
:10041000FF93E0916820F0916920309709F00995E9
:10042000FF91EF91BF91AF919F918F917F916F91CC
:100430005F914F913F912F910F900FBE0F901F90A2
:1004400018951F920F920FB60F9211242F933F937E
:100450004F935F936F937F938F939F93AF93BF93CC
:10046000EF93FF93E0916620F0916720309709F0B9
:100470000995FF91EF91BF91AF919F918F917F91DE
:100480006F915F914F913F912F910F900FBE0F9001
:100490001F9018951F920F920FB60F9211242F9351
:1004A0003F934F935F936F937F938F939F93AF93FC
:1004B000BF93EF93FF93E0916420F0916520309714
:1004C00009F00995FF91EF91BF91AF919F918F91A5
:1004D0007F916F915F914F913F912F910F900FBE40
:1004E0000F901F9018951F920F920FB60F92112424
:1004F0002F933F934F935F936F937F938F939F932C
:10050000AF93BF93EF93FF93E0916220F09163204C
:10051000309709F00995FF91EF91BF91AF919F91AD
:100520008F917F916F915F914F913F912F910F909C
:100530000FBE0F901F9018951F920F920FB60F923B
:1005400011242F933F934F935F936F937F938F93D8
:100550009F93AF93BF93EF93FF93E0916020F0914F
:100560006120309709F00995FF91EF91BF91AF910C
:100570009F918F917F916F915F914F913F912F91BB
:100580000F900FBE0F901F9018951F920F920FB6ED
:100590000F9211242F933F934F935F936F937F9309
:1005A0008F939F93AF93BF93EF93FF93E0915E2060
:1005B000F0915F20309709F00995FF91EF91BF917D
:1005C000AF919F918F917F916F915F914F913F91EB
:1005D0002F910F900FBE0F901F9018951F920F92A2
:1005E0000FB60F9211242F933F934F935F936F9306
:1005F0007F938F939F93AF93BF93EF93FF93E0917C
:100600005C20F0915D20309709F00995FF91EF9102
:10061000BF91AF919F918F917F916F915F914F911A
:100620003F912F910F900FBE0F901F9018951F9222
:100630000F920FB60F9211242F933F934F935F9316
:100640006F937F938F939F93AF93BF93EF93FF939A
:10065000E0915A20F0915B20309709F00995FF91C5
:10066000EF91BF91AF919F918F917F916F915F912A
:100670004F913F912F910F900FBE0F901F901895A3
:100680001F920F920FB60F9211242F933F934F9307
:100690005F936F937F938F939F93AF93BF93EF93EA
:1006A000FF93E0915820F0915920309709F0099577
:1006B000FF91EF91BF91AF919F918F917F916F913A
:1006C0005F914F913F912F910F900FBE0F901F9010
:1006D00018951F920F920FB60F9211242F933F93EC
:1006E0004F935F936F937F938F939F93AF93BF933A
:1006F000EF93FF93E0915620F0915720309709F047
:100700000995FF91EF91BF91AF919F918F917F914B
:100710006F915F914F913F912F910F900FBE0F906E
:100720001F9018951F920F920FB60F9211242F93BE
:100730003F934F935F936F937F938F939F93AF9369
:10074000BF93EF93FF93E0915420F09155203097A1
:1007500009F00995FF91EF91BF91AF919F918F9112
:100760007F916F915F914F913F912F910F900FBEAD
:100770000F901F9018951F920F920FB60F92112491
:100780002F933F934F935F936F937F938F939F9399
:10079000AF93BF93EF93FF93E0915220F0915320DA
:1007A000309709F00995FF91EF91BF91AF919F911B
:1007B0008F917F916F915F914F913F912F910F900A
:1007C0000FBE0F901F9018951F920F920FB60F92A9
:1007D00011242F933F934F935F936F937F938F9346
:1007E0009F93AF93BF93EF93FF93E0915020F091CD
:1007F0005120309709F00995FF91EF91BF91AF918A
:100800009F918F917F916F915F914F913F912F9128
:100810000F900FBE0F901F9018951F920F920FB65A
:100820000F9211242F933F934F935F936F937F9376
:100830008F939F93AF93BF93EF93FF93E0914E20DD
:10084000F0914F20309709F00995FF91EF91BF91FA
:10085000AF919F918F917F916F915F914F913F9158
:100860002F910F900FBE0F901F9018951F920F920F
:100870000FB60F9211242F933F934F935F936F9373
:100880007F938F939F93AF93BF93EF93FF93E091E9
:100890004C20F0914D20309709F00995FF91EF9190
:1008A000BF91AF919F918F917F916F915F914F9188
:1008B0003F912F910F900FBE0F901F9018951F9290
:1008C0000F920FB60F9211242F933F934F935F9384
:1008D0006F937F938F939F93AF93BF93EF93FF9308
:1008E000E0914A20F0914B20309709F00995FF9153
:1008F000EF91BF91AF919F918F917F916F915F9198
:100900004F913F912F910F900FBE0F901F90189510
:100910001F920F920FB60F9211242F933F934F9374
:100920005F936F937F938F939F93AF93BF93EF9357
:10093000FF93E0914820F0914920309709F0099504
:10094000FF91EF91BF91AF919F918F917F916F91A7
:100950005F914F913F912F910F900FBE0F901F907D
:1009600018951F920F920FB60F9211242F933F9359
:100970004F935F936F937F938F939F93AF93BF93A7
:10098000EF93FF93E0914620F0914720309709F0D4
:100990000995FF91EF91BF91AF919F918F917F91B9
:1009A0006F915F914F913F912F910F900FBE0F90DC
:1009B0001F9018951F920F920FB60F9211242F932C
:1009C0003F934F935F936F937F938F939F93AF93D7
:1009D000BF93EF93FF93E0914420F091452030972F
:1009E00009F00995FF91EF91BF91AF919F918F9180
:1009F0007F916F915F914F913F912F910F900FBE1B
:100A00000F901F9018951F920F920FB60F921124FE
:100A10002F933F934F935F936F937F938F939F9306
:100A2000AF93BF93EF93FF93E0914220F091432067
:100A3000309709F00995FF91EF91BF91AF919F9188
:100A40008F917F916F915F914F913F912F910F9077
:100A50000FBE0F901F9018951F920F920FB60F9216
:100A600011242F933F934F935F936F937F938F93B3
:100A70009F93AF93BF93EF93FF93E0914020F0914A
:100A80004120309709F00995FF91EF91BF91AF9107
:100A90009F918F917F916F915F914F913F912F9196
:100AA0000F900FBE0F901F90189504C061507109F0
:100AB000810991096115710581059105B9F70895BD
:100AC000E0E0F6E08081806880838481148208956C
:100AD000E0EAFAE080EB868317828781806B878368
:100AE00080E1838381818068818388E1848383E0DE
:100AF00085838581877C858388E0809380068181DA
:100B000085FFFDCF81E08093A20078940895D8DF1F
:100B1000DFDFFFCFFC012081222359F0DC01119699
:100B2000E0EAFAE0918195FFFDCF20832D9121111C
:100B3000F9CF08951F920F920FB60F9211240F93C1
:100B40001F932F933F934F935F936F937F938F9355
:100B50009F93AF93BF93EF93FF93CF93DF93CDB763
:100B6000DEB7C85CD109CDBFDEBFE0E0F6E084812E
:100B7000806884838091A00A8237E9F480E090E263
:100B800059DB8C0180E090E25DDB1F928F93C801FE
:100B9000969587959F938F938DE190E29F938F9386
:100BA0008E010F5F1F4F1F930F932AD0C801B2DF32
:100BB000CDBFDEBF03C087E390E2ACDF66E875E43B
:100BC00081E090E072DFE0E0F6E084811482C853B7
:100BD000DF4FCDBFDEBFDF91CF91FF91EF91BF918E
:100BE000AF919F918F917F916F915F914F913F91C5
:100BF0002F911F910F910F900FBE0F901F9018957E
:100C0000AEE0B0E0E5E0F6E0AAC20D891E8986E01C
:100C10008C8309831A838FEF9FE78D839E83AE01B8
:100C2000475E5F4F6F89788DCE01019608D0EF81C6
:100C3000F885E00FF11F10822E96E4E0A9C2ABE028
:100C4000B0E0E4E2F6E07DC26C017B018A01FC01C8
:100C500016821782838181FFBFC1CE0101963C01BC
:100C6000F6019381F70193FD859193FF81917F01B7
:100C7000882309F4ADC1853239F493FD859193FF42
:100C800081917F01853221F4B60190E0C0D1E8CF97
:100C9000912C212C312CFFE1F315D8F08B3279F017
:100CA00038F4803279F08332A1F4232D20611DC005
:100CB0008D3261F0803369F4232D216016C0832DBD
:100CC0008260382EE32DE4603E2E2AC0F32DF860BA
:100CD0001DC037FC2DC020ED280F2A3040F08E3289
:100CE000B9F436FC75C1232D2064322E19C036FEAE
:100CF00006C08AE0989E200D1124922E11C0EAE0D1
:100D00002E9E200D1124222EF32DF0623F2E08C0BE
:100D10008C3621F4832D8068382E02C0883641F449
:100D2000F70193FD859193FF81917F018111B3CFED
:100D3000982F9F7D9554933028F40C5F1F4F9FE3AD
:100D400099830DC0833631F0833771F0833509F014
:100D500055C020C0F801808189830E5F1F4F882411
:100D60008394912C530112C02801F2E04F0E511CC4
:100D7000F801A080B18036FE03C0692D70E002C08A
:100D80006FEF7FEFC50138D14C018201F32DFF7762
:100D90003F2E15C0280122E0420E511CF801A08010
:100DA000B18036FE03C0692D70E002C06FEF7FEFA7
:100DB000C50117D14C01F32DF0683F2E820133FCA1
:100DC00019C0822D90E088169906A0F4B60180E241
:100DD00090E01DD12A94F5CFF50137FC859137FEBF
:100DE00081915F01B60190E012D121102A9421E097
:100DF000821A91088114910479F7E1C0843611F0C8
:100E0000893639F5F80137FE07C06081718182812A
:100E100093810C5F1F4F08C060817181072E000C09
:100E2000880B990B0E5F1F4FF32DFF763F2E97FF18
:100E300009C090958095709561957F4F8F4F9F4F1A
:100E4000F0683F2E2AE030E0A3011DD1882E8618DD
:100E500044C0853731F4232D2F7EB22E2AE030E0B6
:100E600025C0932D997FB92E8F36C1F018F488359F
:100E700079F0AEC0803719F0883721F0A9C0E92F8A
:100E8000E061BE2EB4FE0DC0FB2DF460BF2E09C084
:100E900034FE0AC0292F2660B22E06C028E030E0BA
:100EA00005C020E130E002C020E132E0F801B7FEE9
:100EB00007C060817181828193810C5F1F4F06C0E2
:100EC0006081718180E090E00E5F1F4FA301DBD055
:100ED000882E8618FB2DFF773F2E36FE0DC0232D62
:100EE0002E7FA22E891458F434FE0BC032FC09C0A8
:100EF000832D8E7EA82E05C0B82CA32C03C0B82C41
:100F000001C0B92CA4FE0FC0FE01E80DF11D8081C7
:100F1000803321F49A2D997EA92E09C0A2FE06C025
:100F2000B394B39404C08A2D867809F0B394A3FCDB
:100F300010C0A0FE06C0B21480F4280C922C9B189E
:100F40000DC0B21458F4B60180E290E060D0B394C2
:100F5000F8CFB21418F42B1802C0982C212CA4FE40
:100F60000FC0B60180E390E052D0A2FE16C0A1FCF3
:100F700003C088E790E002C088E590E0B6010CC0AD
:100F80008A2D867851F0A1FE02C08BE201C080E27A
:100F9000A7FC8DE2B60190E03AD0891430F4B60196
:100FA00080E390E034D09A94F8CF8A94F301E80D6E
:100FB000F11D8081B60190E02AD08110F6CF222069
:100FC00009F44ECEB60180E290E021D02A94F7CF0A
:100FD000F6018681978102C08FEF9FEF2B96E2E1A9
:100FE000C9C0FC010590615070400110D8F7809590
:100FF00090958E0F9F1F0895FC01615070400190E5
:101000000110D8F7809590958E0F9F1F08950F932C
:101010001F93CF93DF93FB01238121FD03C08FEF4B
:101020009FEF2CC022FF16C0468157812481358155
:101030004217530744F4A081B1819D012F5F3F4FB8
:10104000208331838C93268137812F5F3F4F268306
:10105000378314C08B01EC01FB010084F185E02D86
:101060000995892BE1F6D80116968D919C911797D9
:10107000019616968D939C931797CE01DF91CF9191
:101080001F910F910895FA01AA27283051F12031BC
:1010900081F1E8946F936E7F6E5F7F4F8F4F9F4F0C
:1010A000AF4FB1E03ED0B4E03CD0670F781F891F4E
:1010B0009A1FA11D680F791F8A1F911DA11D6A0F1C
:1010C000711D811D911DA11D20D009F468943F91CF
:1010D0002AE0269F11243019305D3193DEF6CF01CE
:1010E0000895462F4770405D4193B3E00FD0C9F794
:1010F000F6CF462F4F70405D4A3318F0495D31FD01
:101100004052419302D0A9F7EACFB4E0A695979553
:10111000879577956795BA95C9F700976105710529
:1011200008959B01AC010A2E069457954795379573
:101130002795BA95C9F7620F731F841F951FA01DCD
:1011400008952F923F924F925F926F927F928F926B
:101150009F92AF92BF92CF92DF92EF92FF920F9346
:101160001F93CF93DF93CDB7DEB7CA1BDB0BCDBF89
:10117000DEBF09942A88398848885F846E847D841C
:101180008C849B84AA84B984C884DF80EE80FD802F
:101190000C811B81AA81B981CE0FD11DCDBFDEBFCD
:0811A000ED010895F894FFCF62
:1011A8000006000200000000000000000804000023
:1011B800024008E803000000000000000050726FC1
:1011C80078506F733A2025642C2050726F784469E8
:1011D800723A2025640A006F6E6C696E650A000019
:00000001FF
